:020000040800F2
:10000000880500209D010008F91E0008191D000840
:10001000F51E0008850200081126000800000000F7
:10002000000000000000000000000000011F0008A8
:100030009502000800000000FD1E0008051F0008D2
:10004000B7010008B7010008B7010008B7010008B0
:10005000B7010008B7010008B7010008B7010008A0
:10006000B7010008B7010008B7010008B701000890
:1000700089020008B7010008B7010008B7010008AD
:10008000B7010008B7010008B7010008B701000870
:10009000B7010008B7010008B7010008B701000860
:1000A000B7010008B7010008B7010008B701000850
:1000B000B7010008B7010008B7010008B701000840
:1000C000B7010008B7010008B7010008B701000830
:1000D000B7010008B7010008B701000805260008AD
:1000E000B7010008B7010008B7010008B701000810
:1000F000B7010008B7010008B7010008B701000800
:10010000B7010008B7010008B7010008B7010008EF
:10011000B7010008B7010008C51F0008B7010008B3
:10012000B7010008B7010008B7010008B7010008CF
:10013000B7010008B7010008B7010008B7010008BF
:10014000B7010008B7010008B7010008B7010008AF
:10015000B7010008B7010008B7010008B70100089F
:10016000B7010008B7010008B7010008B70100088F
:10017000B7010008B7010008B7010008000000003F
:10018000B7010008B7010008DFF80CD000F068F8EC
:1001900000480047152600088805002006488047CB
:1001A00006480047FEE7FEE7FEE7FEE7FEE7FEE75C
:1001B000FEE7FEE7FEE7FEE7B11F00088901000841
:1001C0002DE9F05F0546002092469B46884606468C
:1001D000814640241BE0284641464746224600F01F
:1001E0002FF853465A46C01A914110D3114618466B
:1001F000224600F016F82D1A67EB01084F462246FA
:100200000120002100F00DF817EB00094E41201EDF
:10021000A4F10104DFDC484631462A464346BDE8E6
:10022000F09F202A04DB203A00FA02F100207047F8
:100230009140C2F1200320FA03F319439040704724
:10024000202A04DB203A21FA02F00021704721FA2B
:1002500002F3D040C2F12002914008431946704792
:10026000064C074D06E0E06840F0010394E8070003
:1002700098471034AC42F6D3FFF78AFF9426000863
:10028000B4260008FEE7000040F23800C2F2000089
:1002900000F060B87047000072B600BFFEE70000D3
:1002A00070B5866D044600F011FB94F835100229F4
:1002B00028D105462068216C026822F016020260EF
:1002C000426922F08002426109B9A16C19B101684A
:1002D00021F008010160016821F00101016000BF07
:1002E00020680068C00715D000F0F0FA401B06280F
:1002F000F6D320206065032084F83500002184F8BF
:10030000341070BD802060650120002184F8341015
:1003100070BD00BFE06D3F2101FA00F0B060012028
:1003200084F835000020002184F8341070BD0000EE
:1003300090F83510022909D1052180F835100068A0
:10034000016821F0010101600020704780214165B2
:1003500001207047F0B581B004460020009040F2C3
:100360000800C2F200000268D4E9166048F2B51332
:1003700037680821C1F64E3381403942A2FB03257C
:100380000CD0226813685B0708D5136823F00403B8
:100390001360B160616D41F001016165012181402F
:1003A000394208D022685269120604D5B160616DE5
:1003B00041F00201616504218140394208D0226880
:1003C0001268920704D5B160616D41F00401616566
:1003D00010218140394217D020680268120713D5D6
:1003E000B16002680168520308D4C90508D40168E5
:1003F00021F008010160216C21B905E008033FD418
:10040000216C09B120468847E16D202000FA01F2F5
:100410003A4241D020680368DB063DD5B26094F8CB
:1004200035300268052B1BD122F0160202604269AA
:1004300022F080024261226C0AB9A26C1AB10268F1
:1004400022F0080202603F208840B060012084F85A
:100450003500216D0020002984F8340052D157E086
:100460000168520310D4C90512D4016821F01001AB
:100470000160012084F83500002084F8340007E092
:10048000A16C0029BED1BFE7080301D4616C00E074
:10049000E16B09B120468847606DC8B3606DC00745
:1004A0002ED0052084F835002068A90A026822F0C1
:1004B00001020260009A01328A4200921AD8026850
:1004C000D20717D0009A01328A42009212D80268ED
:1004D000D2070FD0009A01328A4200920AD80268ED
:1004E000D20707D0009A01328A42009202D80268ED
:1004F000D207DFD1012084F83500002084F83400D1
:10050000E16C29B1204601B0BDE8F040084700BFCA
:1005100001B0F0BD2DE9F041044600F0D7F9ECB18F
:100520000546022084F835000020216884F8340054
:10053000086820F00100086021680868C00711D031
:1005400000F0C4F9401B0528F6D903252023032019
:10055000636584F83550BDE8F08100BF0120BDE837
:10056000F08100BF086848F23F02CFF21002D4E9E0
:10057000013500EA020C04F10C0898E8C10143EAD5
:100580000C032B431843D4E9072E30433843104360
:10059000626A40EA0E00042A40EA08031CD1206B7C
:1005A000D4E90A2E40EA0E00184308604869BEF1FB
:1005B000000F20F0030040EA020040F0040C11D0CC
:1005C000B8F5005F36D0B8F1000F45D1022A46D009
:1005D000012A3BD032B942E00B60486920F00700A5
:1005E00040EA020C01F0F8004AF6AB221038CAF6D5
:1005F000AA22A0FB02231A0942F28C63C0F6000370
:100600009A5C40F2FF335F284FF03F00C1F814C0FE
:1006100021EA030100FA02F088BF0431C4E916128E
:100620008860002301250020636584F83550BDE80B
:10063000F08100BF032AD5D8012540230120DFE83F
:1006400002F0030E030500BF82E700BFAEF1C070E9
:10065000B0FA80F0400904E0032A04D3C2D1CEF3FB
:1006600000600028BED0012540230120636584F886
:100670003550BDE8F081000070B590F834C0BCF191
:10068000010F46D04FF0010C80F834C0D0F858E08C
:1006900090F835C0BCF1010F38D14FF0020C80F852
:1006A00035C04FF0000CC0F854C0D0F800C08468CA
:1006B000056CC06DDCF80060402C26F48026CCF878
:1006C0000060CCF804300B4604BF13460A463F21B5
:1006D00001FA00F0CCF80830CCF80C20CEF8080075
:1006E000DCF8000040F01600CCF800002DB1DCF87A
:1006F000000040F00800CCF80000DCF8000040F0FA
:100700000100CCF80000002070BD00BF002180F87F
:100710003410022070BD00002DE9F04F82B000F1CE
:100720003E4241F6004502F1FF77C4F2020508227D
:1007300043F6004E4FEAB726A84208BF0722C4F28C
:10074000010E072E38BF4FEAB722012500260027E9
:100750004FF00008009208E008F101080437B8F1F2
:10076000100F06F1020600F0A7800C6805FA08F9E0
:1007700014EA090FF0D0D1F804B003220BF0030CF7
:10078000ACF10104B240012C6FEA020A10D8826871
:10079000CC6802EA0A02B440224382604268CBF38A
:1007A000001422EA090204FA08F42243426005E038
:1007B000BCF1030F02D14FF0030C20E0C2688C683B
:1007C00002EA0A02B4402243BCF1020FC26016D111
:1007D0006FF0030202EA58020244D2F820C007F088
:1007E0001C050F230C69AB402CEA030304FA05F542
:1007F0002B431362D1F804B001250BF0030C0268FF
:100800000CFA06F302EA0A021A431BF4403F0260A4
:10081000A2D0002243F644030192C4F202031A68F4
:100820004FF6084C42F480421A601A68CFF6FF7CFB
:1008300002F480420192019A28F00302724452F8B5
:100840000C3007F00C050F24AC40A343009C04FAC5
:1008500005F52B4342F80C30DEF808204B6842EADD
:10086000090543F60C4CDC0258BF22EA0905CEF814
:100870000850C4F2010CDCF800209C0242EA090591
:1008800058BF22EA0905CCF80050DEF804209C038A
:1008900042EA090558BF22EA0905CEF80450DEF8FD
:1008A0000020DB0342EA090558BF22EA0905CEF819
:1008B0000050012550E700BF02B0BDE8F08F0000F6
:1008C000002A08BF090481617047000040F28010CF
:1008D000C2F200000068704740F2000040F2801150
:1008E000C2F20000C2F2000100780A6810440860F9
:1008F0007047000080B543F60040C4F20200016872
:1009000041F400710160016841F480610160016897
:1009100041F480710160032000F088F80F2000F09E
:1009200005F800F027F8002080BD000070B540F207
:100930000006C2F2000640F208013278C2F200015D
:100940004FF47A730968B3FBF2F20446B1FBF2F19B
:10095000084600F0D3FB0F2C4FF0010508D838B93A
:100960004FF0FF3021460022002500F033F874607C
:10097000284670BD82B0002043F640010190C4F2C9
:1009800002014A6842F480424A604A6802F48042A6
:100990000192019A0090086840F080500860086851
:1009A00000F080500090009802B07047002848BFC7
:1009B0007047C1B200F01F00012202FA00F04EF2AF
:1009C0000012CEF2000242EAD10121F003010860D8
:1009D0007047000010B54EF60C5CCEF2000CDCF84F
:1009E0000030C3F3022E8EF00704042C28BF042429
:1009F000BEF103034FF0FF3E0EFA04F438BF0023AC
:100A0000A14399400EFA03F39A43114300F00F02F9
:100A100000F160430901043A03F56443624400288D
:100A200048BF02F10C03197010BD00004EF60C51C6
:100A3000CEF200010A684FF6FF031A4060F30A2263
:100A400042F0806040F0FD70086070472DE9F04191
:100A5000002800F08B8043F60808C4F20208044620
:100A6000D8F8F8030D4600F00700884207D288F84E
:100A7000F853D8F8F80300F00700A84276D12068B0
:100A8000810717D5410705D5D8F8001041F4E0518A
:100A9000C8F80010010705D5D8F8001041F46041EE
:100AA000C8F80010D8F80010A26821F0F001114336
:100AB000C8F80010C0073FD1D8F8F80300F00700CD
:100AC000A84207D988F8F853D8F8F80300F00700CF
:100AD000A8424BD12068410707D5D8F80010E2683A
:100AE00021F4E0511143C8F80010000708D5D8F8E8
:100AF0000000216920F4604040EAC100C8F800000D
:100B000000F07CF8D8F8001042F27462C1F30311CF
:100B1000C0F60002515C40F2080220FA01F140F2F6
:100B20000400C2F200000068C2F200021160FFF788
:100B3000FDFE0020BDE8F0816068811E022907D219
:100B400058F8081C89015CBF0120BDE8F08111E064
:100B5000012807D158F8081C89035CBF0120BDE8B3
:100B6000F08107E058F8081C890703D40120BDE88C
:100B7000F08100BFD8F8001021F003010843C8F845
:100B80000000FFF7A3FE064641F28837D8F80000C0
:100B9000616800F00C00B0EB810F8DD0FFF796FE7E
:100BA000801BB842F2D90320BDE8F08140F2080072
:100BB00043F60801C2F20000C4F2020100680968AD
:100BC00042F28462C1F38221C0F60002515CC84047
:100BD0007047000040F2080043F60801C2F200002E
:100BE000C4F202010068096842F28462C1F3423132
:100BF000C0F60002515CC8407047000010B543F6D3
:100C00000404C4F20204606800F00C0008280BD051
:100C1000042819BF42F20040C0F2F40041F600304F
:100C2000C0F2B70010BD00BF2068216823684902E8
:100C300041F60031C0F2B70100F03F02C3F3881063
:100C40005CBF42F20041C0F2F401A1FB00010023AD
:100C5000FFF7B6FA21680222C1F3014102EB41011C
:100C6000B0FBF1F010BD00002DE9F04182B000288A
:100C700068D00446007843F60006C007C4F20206B6
:100C80000BD0B06800F00C00042840F09F80306862
:100C9000800302D56068002854D0207880071AD5D8
:100CA000B06810F00C0F09D0B06800F00C000828F4
:100CB00040F0A6807068400200F1A2803068800792
:100CC00002D5E06801283DD13068216920F0F800A4
:100CD00040EAC10030602078000737D42078400710
:100CE0004CD4A56955B3B06800F00C00082840F05A
:100CF000BB80012D26D07068E16900F480028A4231
:100D000020D1216A00F03F028A421BD147F6C07110
:100D1000626A0140B1EB821F14D1A16A4FF6FF73E2
:100D2000C903994300F44032A1F580318A4209D1C8
:100D3000E16A00F07060B0EB016F03D1002002B0F7
:100D4000BDE8F081012002B0BDE8F08160690028B3
:100D500040F20000C4F2472076D00121C0F8801E86
:100D6000FFF7B4FD054600BF706F8007B6D4FFF7EC
:100D7000ADFD401B0228F7D9DDE000BF306C10F05C
:100D800080580AD100200190306C40F080503064CF
:100D9000306C00F080500190019847F20007C4F2D7
:100DA00000073868C00541D4386840F48070386066
:100DB000FFF78CFD054600BF3868C00536D4FFF745
:100DC00085FD401B0228F7D9B5E000BFB06800F0F0
:100DD0000C00082803D1706840023FF558AF6068E6
:100DE000B0F5803F07D0B0F5A02F40F08D8030687F
:100DF00040F480203060306840F4803030608DE016
:100E0000E068002852D00020C4F247200121016090
:100E1000FFF75CFD054600BF306880073FF554AF23
:100E2000FFF754FD401B0228F6D984E0A068012892
:100E300005D005284ED1306F40F004003067306F88
:100E400040F0010030674FE00021C0F8801EFFF73E
:100E50003DFD0546706F80077FF540AFFFF736FD1B
:100E6000401B0228F6D966E00027C4F2472700207D
:100E70003866FFF72BFD022D05460BD13068800147
:100E80005ED5FFF723FD401B02284FF00300F5D984
:100E900055E700BF306880017FF550AFFFF716FDC2
:100EA000401B02284FF00300F4D948E70020C4F2A9
:100EB000472000210160FFF709FD054630688007E3
:100EC0007FF509AFFFF702FD401B02284FF003003A
:100ED000F4D934E7316F002821F001013167316F17
:100EE00021F0040131674DD0FFF7F0FC054641F2D7
:100EF000883700BF306F800756D4FFF7E7FC401BF0
:100F0000B842F7D917E000BF3168002821F48031DA
:100F10003160316821F4802131604FD0FFF7D6FC79
:100F2000054600BF306880033FF5B7AEFFF7CEFC43
:100F3000401B6428F6D9032002B0BDE8F08100BF51
:100F400004F11C052FCD084340EA8210D9034FF667
:100F5000FF729143A1F5803140EA0560084370605B
:100F600001203866FFF7B2FC044600BF30688001FC
:100F70003FF5E4AEFFF7AAFC001B02284FF0030088
:100F8000F4D9DCE6FFF7A2FC054641F2883700BF42
:100F9000306F800708D5FFF799FC401BB8424FF02F
:100FA0000300F5D9CBE600BFB8F1000F7FF499AE8E
:100FB000306C20F08050306493E600BFFFF786FC71
:100FC000054600BF306880037FF567AEFFF77EFC03
:100FD000401B64284FF00300F4D9B0E670B538B177
:100FE0000446406A30B10020206104F1140007E09B
:100FF000012070BD6068B0F5827F03D004F11C0051
:10100000002101600026A66294F8510020B9204614
:1010100084F8506000F03CF8022084F8510094E815
:101020000F0001F48271056802F4044225F04005C6
:101030000560114403F400622369114403F00202C5
:101040006369114403F00102A369E569114403F4E3
:101050000072114405F03802256A114405F080023F
:10106000A56A114305F4005211430160626A04212C
:1010700001EA134102F0100211444160C16921F4F8
:101080000061C1610120666584F85100304670BD81
:1010900080B586B0016843F20000C4F201008142CD
:1010A00002D006B080BD00BF002143F6300201919E
:1010B000C4F20202536900F5544043F48053536173
:1010C000536903F480530193019B0191136843F02A
:1010D00002031360126802F002020192019A3822A0
:1010E00001920222CDE902210321049105210591FB
:1010F00001A9FFF711FB06B080BD0000411E0020D2
:10110000B0EB116F1CBF012070474EF21002CEF2FF
:10111000000251604EF62351CEF20001F0230B7015
:101120000721906011607047704700007047000011
:1011300010B590F83C20012A4FF0020251D080F8FF
:101140003D200268D2F804E0D2F808C00C682EF006
:101150007003234341F2FF74C4F20004A2425360BF
:101160000EDC40F2FF73C4F200039A4216DCB2F1C7
:10117000804F2BD040F20043C4F2000324E000BFB4
:1011800040F2FF33C4F201039A4213DC41F600033C
:10119000C4F200039A4219D0002313E040F6000382
:1011A000C4F200039A4211D040F60043C4F2000397
:1011B0000AE000BF44F20003C4F201039A4205D0E2
:1011C00040F20043C4F201039A4204D149682CF072
:1011D0008003194391600121002280F83D1080F8BE
:1011E0003C20104610BD0000002804BF01207047BD
:1011F00010B5044690F83D0028B9002084F83C0062
:10120000204600F01FF8022084F83D002068211DD0
:1012100000F0DEFE012084F8460084F83E0084F8E9
:101220003F0084F8400084F8410084F8420084F8CC
:10123000430084F8440084F8450084F83D00002011
:1012400010BD000080B582B0006841F20001C4F218
:10125000000188421CBF02B080BD0020019043F60F
:101260004000C4F202000168002241F01001016058
:101270000068002100F01000019001983620FFF76F
:10128000A9FB362002B0BDE88040FFF78FBB00000D
:1012900090F83D1001291CBF01207047022180F801
:1012A0003D10006841F2FF72C168C4F20002904232
:1012B00041F00101C1600DDC40F2FF71C4F2000198
:1012C000884215DCB0F1804F2AD040F20041C4F2D0
:1012D000000123E040F2FF31C4F20101884213DC37
:1012E00041F60001C4F20001884219D0002113E048
:1012F00040F60001C4F20001884211D040F60041DE
:10130000C4F200010AE000BF44F20001C4F201018E
:10131000884205D040F20041C4F20101884206D162
:10132000816801F00701062904BF002070470168A9
:1013300041F001010160002070470000704700008B
:1013400070B504460068C5680669B10716D515F082
:10135000020113D06FF00201016101212177806940
:10136000800703D02046FFF7E9FF05E0204600F0A4
:101370008FF8204600F08EF800202077700719D5EE
:1013800015F0040016D020686FF0040101610221FD
:101390002177806910F4407F04D02046FFF7CEFF0C
:1013A00006E000BF204600F073F8204600F072F817
:1013B00000202077300717D515F0080014D02068DA
:1013C0006FF00801016104212177C069800703D013
:1013D0002046FFF7B3FF05E0204600F059F820460D
:1013E00000F058F800202077F00619D515F010000D
:1013F00016D020686FF01001016108212177C069C3
:1014000010F4407F04D02046FFF798FF06E000BFAD
:10141000204600F03DF8204600F03CF80020207700
:10142000F00718BF15F0010002D1300609D412E010
:1014300020686FF001010161204600F02DF83006B0
:1014400009D515F0800006D020686FF08001016199
:101450002046FFF769FE700609D515F0400006D05A
:1014600020686FF040010161204600F017F8B006D7
:1014700058BF70BD15F0200008D021686FF0200221
:1014800020460A61BDE87040FFF750BE70BD000005
:101490007047000070470000704700007047000070
:1014A0007047000070470000B0B582B00446006885
:1014B0000168C368426901F02F05202D03F0200563
:1014C00006D12DB1204602B0BDE8B04000F0A2BF69
:1014D0005FEA017C1EBF02F0010E03F4907212EB72
:1014E0000E0253D1226B012A05D111F0100218BF50
:1014F00013F0100236D10A0622D513F080021FD055
:1015000094F8411021293FD1A168B1F5805F03D142
:101510002169002900F08282216A4A1C226209782E
:101520004160E18C01390A04E1842DD1C16821F0C8
:101530008001C160C16841F04001C16002B0B0BD2E
:10154000490621D513F040011ED0C16821F04001A9
:10155000C1602021204684F8411002B0BDE8B040AF
:1015600000F0D8BB0021019101680191416801910F
:1015700001994069400613D4A08DE18DE28D002AC7
:1015800018BF884240F0CC8102B0B0BDCA0718BF76
:1015900013F4807240F0BE804A0700F1C180C6E0BB
:1015A000E06B01684A68A38D91B2002900F0A88120
:1015B000994280F0A581E285C069B0F5807F00F096
:1015C0009D80206850E8030F216820F4807041E876
:1015D0000302DAB1206850E8030F216820F480701C
:1015E00041E8030292B1206850E8030F216820F41B
:1015F000807041E803024AB1206850E8030F216877
:1016000020F4807041E80302002ADAD1206850E813
:10161000050F216820F0010041E80502BAB32068F7
:1016200050E8050F216820F0010041E8050272B37F
:10163000206850E8050F216820F0010041E805020C
:101640002AB3206850E8050F216820F0010041E826
:101650000502002ADAD11AE0206850E8050F216857
:1016600020F0400041E80502DAB1206850E8050F9B
:10167000216820F0400041E8050292B1206850E85E
:10168000050F216820F0400041E805024AB12068BA
:1016900050E8050F216820F0400041E80502002ACB
:1016A000DAD1202084F8420000202063206850E82E
:1016B000030F216820F0100041E80302DAB120682E
:1016C00050E8030F216820F0100041E8030292B1B6
:1016D000206850E8030F216820F0100041E8030261
:1016E0004AB1206850E8030F216820F0100041E85B
:1016F0000302002ADAD1E06BFEF7D2FD022060631C
:10170000A08DE18D401A81B2204602B0BDE8B04004
:10171000FFF7C6BE626C42F0010262644A0706D55A
:10172000BEF1000F03D0626C42F0020262648A07CD
:1017300006D5BEF1000F03D0626C42F00402626471
:10174000BCF1000F09D545EA0E02B2FA82F2520945
:1017500003D1626C42F008026264626C002A3FF4BA
:1017600013AF11F0200118BF002D03D0204600F068
:1017700051FE20684069616C00F0400001F00801F2
:10178000401800F0B58000BF206850E8030F2168C2
:1017900020F4907041E80302BAB3206850E8030FC8
:1017A000216820F4907041E8030272B3206850E889
:1017B000030F216820F4907041E803022AB32068E7
:1017C00050E8030F216820F4907041E80302002ADA
:1017D000DAD11AE0206850E8050F216820F00100F6
:1017E00041E80502DAB1206850E8050F216820F0D1
:1017F000010041E8050292B1206850E8050F216818
:1018000020F0010041E805024AB1206850E8050FC8
:10181000216820F0010041E80502002ADAD1206B9E
:10182000012824D1206850E8030F216820F010001F
:1018300041E80302DAB1206850E8030F216820F084
:10184000100041E8030292B1206850E8030F2168BC
:1018500020F0100041E803024AB1206850E8030F6D
:10186000216820F0100041E80302002ADAD120208C
:1018700084F842000020206320684069400649D572
:10188000206850E8050F216820F0400041E805027B
:10189000DAB1206850E8050F216820F0400041E8E7
:1018A000050292B1206850E8050F216820F0400041
:1018B00041E805024AB1206850E8050F216820F090
:1018C000400041E80502002ADAD1E06B10B342F291
:1018D0001511C0F600010165FEF72AFD00283FF44E
:1018E00053AEE06B016D02B0BDE8B040084700BFE9
:1018F0002046FFF7D7FD0020606402B0B0BD00BFF6
:101900008B427FF441AEC069B0F5807F7FF43CAE7E
:1019100002227CE0204602B0BDE8B040FFF7C2BD25
:10192000401A216851E8031F226821F4907142E8AF
:101930000313DBB1216851E8031F226821F4907181
:1019400042E8031393B1216851E8031F226821F490
:10195000907142E803134BB1216851E8031F2268DC
:1019600021F4907142E80313002BDAD1216851E889
:10197000051F226821F0010142E80513DBB121684F
:1019800051E8051F226821F0010142E8051393B1D7
:10199000216851E8051F226821F0010142E8051382
:1019A0004BB1216851E8051F226821F0010142E88E
:1019B0000513002BDAD1202184F842100021216385
:1019C000216851E8031F226821F0100142E8031347
:1019D000DBB1216851E8031F226821F0100142E8C1
:1019E000031393B1216851E8031F226821F010010D
:1019F00042E803134BB1216851E8031F226821F02C
:101A0000100142E80313002BDAD1022281B22046F2
:101A1000626302B0BDE8B040FFF742BD216A31F811
:101A2000022B6FF35F22426021627AE5002804BF37
:101A30000120704710B5044690F8410028B90020F5
:101A400084F84000204600F021F8242084F841006A
:101A50002068C16821F40051C160204600F05AFDA1
:101A60002068016921F490410161416921F02A0156
:101A70004161C16841F40051C160002020216064CF
:101A800084F8411084F84210606310BD70B586B0D0
:101A90000446016844F60000C4F20000814201D00F
:101AA00006B070BD002643F630010196C4F2020173
:101AB0000A6900F5E03042F480220A610A6902F402
:101AC00080220192019A01960A6842F004020A609B
:101AD000096801F00401019101994FF440610191FD
:101AE0000221CDE90216032104910721059101A9E4
:101AF000FEF712FE40F2380546F22800C2F2000559
:101B0000C4F202004FF000614FF480624FF4807322
:101B100085E843002846C5E90362C5E90566C5E9CD
:101B200007366E62FEF7F6FC002818BFFEF7B4FB1E
:101B3000272000210022E563AC63FEF74BFF27203E
:101B4000FEF734FF06B070BD70B582B0044690F861
:101B5000420020280AD113460A4600294FF001000E
:101B600018BF002B06D102B070BD00BF022002B02A
:101B700070BD00BF002622202663A262A385666492
:101B800084F842002168E06B42F29D2C42F2FD3E57
:101B900042F22115C0F6000CC0F6000EC0F600059A
:101BA0000431C0E90FCEC0E91356FEF765FD38B128
:101BB00010206064202084F84200012002B070BD33
:101BC00001962068016801914068019001982069A0
:101BD00030B300BF206850E8030F216840F48070E4
:101BE00041E80302E2B1206850E8030F216840F4A5
:101BF000807041E803029AB1206850E8030F216821
:101C000040F4807041E8030252B1206850E8030FAD
:101C1000216840F4807041E80302002ADAD100BF55
:101C2000206850E8050F216840F0010041E80502F6
:101C3000E2B1206850E8050F216840F0010041E85A
:101C400005029AB1206850E8050F216840F00100B4
:101C500041E8050252B1206850E8050F216840F0C4
:101C6000010041E80502002ADAD100BF206850E8EF
:101C7000050F216840F0400041E80502F2B12068FC
:101C800050E8050F216840F0400041E80502AAB184
:101C9000206850E8050F216840F0400041E8050247
:101CA00062B1206850E8050F216840F0400041E82B
:101CB0000502002A4FF00000D8D154E7002002B0FE
:101CC00070BD000040F21000C2F2000001784278BE
:101CD00083781143C9B24182C2F3C40190F803C0B2
:101CE00041EA4311C9B281824FEA8C01027941EA8B
:101CF000931162F38A21C1824179520861F3CA12B9
:101D000002838A09C1F301118276C176704700000F
:101D10007047000070470000FEE7000080B582B009
:101D20000020019043F63000C4F202000168002256
:101D300041F4001101600068002100F400100190DE
:101D400001980C20FEF746FE0C2002B0BDE8804052
:101D5000FEF72CBE2DE9F04186B0002043F630019D
:101D600005900090C4F202010A68002442F00202C9
:101D70000A600A68C4F2020402F002020092009AA9
:101D800000900A68102642F001020A600A680127E2
:101D900002F001020092009A00900A6842F00402E8
:101DA0000A600A6802F004020092009A0090086833
:101DB000012240F0800008600868102100F08000D7
:101DC000009000982046FEF77BFD04F580652846CC
:101DD00001210122FEF774FDCDE9016701AE4FF04C
:101DE0000208204631460397CDF81080FEF794FC98
:101DF00028463146CDE90177CDE90378FEF78CFC22
:101E000006B0BDE8F0810000B0B540F2980043F2A2
:101E10000001C2F20000C4F201014FF482720023FB
:101E200080E80E0000F10C014FF0020C4FF0010EA3
:101E30004FF40074382581E808500A21C0E90645AE
:101E4000C0E90833C0E90A31FFF7C8F8002808BF25
:101E5000B0BDBDE8B040FEF71FBA000080B582B04B
:101E600040F2F00041F200020021C2F20000C4F290
:101E70000002532340F2E73CCDE90011C0E9002302
:101E8000C0E9021C8161FFF7AFF9002818BFFEF717
:101E900003FA40F2F000C2F200006946FFF748F989
:101EA000002818BFFEF7F8F902B080BD10B540F267
:101EB000381044F6000C48F2A062C2F20000C4F2EE
:101EC000000CC0F201024FF4805300214FF4806EE9
:101ED0000C24C0E900C2C0E90231C0E904E4C0E951
:101EE0000611FFF7A3FD002808BF10BDBDE8104094
:101EF000FEF7D2B9FEE70000FEE7000070470000E1
:101F000070470000FEF7E8BCB0B592B0002443F67D
:101F10004000CDE90A44CDE908440594CDE90344E5
:101F2000CDE901440094C4F202000168022541F0A9
:101F300080510160006800F080500090009847F2E6
:101F400000000094C4F20000016841F48041016087
:101F5000006800F4804000900098012006904FF443
:101F6000803007904FF480000D9006200E90A8203E
:101F7000CDE90F050420119006A80C95FEF774FE1C
:101F800010B172B6FEE700BF0F20CDE901054FF496
:101F9000A05004904FF48050059001A805210394AF
:101FA000FEF754FD10B172B6FEE700BF12B0B0BD2F
:101FB0004EF68850CEF20000016841F470010160D5
:101FC0007047000040F2F000C2F20000FFF7B8B91D
:101FD000B0B540F6FF3E0568C4F2000E40F2004C7A
:101FE0007045C4F2010C27DCB0F1804F31D040F2D3
:101FF0000043C4F2000398422BD040F60003C4F221
:102000000003984225D041F6FF73C4F200039842C2
:102010002ADC70453CDCB0F1804F5FD040F20043D9
:10202000C4F20003984259D040F60003C4F2000302
:10203000984253D057E000BF40F60043C4F200037B
:10204000984206D0604504D00023C4F201039842B0
:10205000D9D14B6825F0700243EA020541F6FF73BF
:10206000C4F200039842D4DD43F6FF73C4F20103C7
:10207000984221DC42F20003C4F2000398422DD0C2
:102080000023C4F20103984228D0604526D02AE0FC
:1020900040F60043C4F2000398421FD041F600030B
:1020A000C4F20003984219D041F60043C4F2000381
:1020B000984213D017E000BF44F20003C4F20103BA
:1020C00098420BD044F60003C4F20103984205D0B5
:1020D00044F20043C4F20103984204D1CB6825F4D2
:1020E000407243EA02050A688C684B69C46240F496
:1020F00080648262644504BF09690163026825F057
:10210000800142F004021943026001224261016031
:10211000B0BD0000806B0021C185FFF7C3B900008E
:10212000806B01684A6990F84130212B2DD112F063
:1021300080022AD00021C184016851E8031F02688F
:1021400021F0C00142E80313DBB1016851E8031F2D
:10215000026821F0C00142E8031393B1016851E81D
:10216000031F026821F0C00142E803134BB101686C
:1021700051E8031F026821F0C00142E80313002B5D
:10218000DAD1202180F841100168496990F8422095
:10219000222A40F07D8011F0400179D00021C185D4
:1021A000016851E8031F026821F4907142E80313AB
:1021B000BBB3016851E8031F026821F4907142E843
:1021C000031373B3016851E8031F026821F490718F
:1021D00042E803132BB3016851E8031F026821F49E
:1021E000907142E80313002BDAD11AE0016851E83C
:1021F000051F026821F0010142E80513DBB1016807
:1022000051E8051F026821F0010142E8051393B16E
:10221000016851E8051F026821F0010142E8051339
:102220004BB1016851E8051F026821F0010142E845
:102230000513002BDAD1016B012924D1016851E883
:10224000031F026821F0100142E80313DBB10168AB
:1022500051E8031F026821F0100142E8031393B113
:10226000016851E8031F026821F0100142E80313DE
:102270004BB1016851E8031F026821F0100142E8E8
:102280000313002BDAD1202180F8421000210163D2
:10229000416C41F010014164FFF704B90168806BA3
:1022A0000968C90500F19F800021C185016851E8D6
:1022B000031F026821F4807142E80313E3B101684F
:1022C00051E8031F026821F4807142E803139BB1B7
:1022D000016851E8031F026821F4807142E803138A
:1022E00053B1016851E8031F026821F4807142E88C
:1022F0000313002BDAD100BF016851E8051F026803
:1023000021F0010142E80513BBB3016851E8051F44
:10231000026821F0010142E8051373B3016851E836
:10232000051F026821F0010142E805132BB3016883
:1023300051E8051F026821F0010142E80513002B56
:10234000DAD11AE0016851E8051F026821F0400166
:1023500042E80513DBB1016851E8051F026821F06E
:10236000400142E8051393B1016851E8051F026876
:1023700021F0400142E805134BB1016851E8051F07
:10238000026821F0400142E80513002BDAD1202138
:1023900080F84210016B012925D100BF016851E886
:1023A000031F026821F0100142E80313DBB101684A
:1023B00051E8031F026821F0100142E8031393B1B2
:1023C000016851E8031F026821F0100142E803137D
:1023D0004BB1016851E8031F026821F0100142E887
:1023E0000313002BDAD100214163016B012918BFCF
:1023F000FFF768BC818DFFF753B80000806B0121A7
:102400004163016B012918BFFFF782BC818D490828
:10241000FFF746B881B090F84210222921D1836895
:102420000246B3F5805F09D152F8281F52F8183CD4
:10243000002B63D003685B680AE000BF52F8281FD6
:1024400013B90369002BF5D003685B6803F07F03C1
:102450000B70116801311160C18D01390A04C18509
:1024600002D001B0704700BF0168CA6822F02002A4
:10247000CA60CA6822F48072CA604A6922F0010206
:102480004A61202180F8421000214163026B012A39
:102490003CD10163016851E8031F026821F010017B
:1024A00042E80313DBB1016851E8031F026821F021
:1024B000100142E8031393B1016851E8031F026859
:1024C00021F0100142E803134BB1016851E8031FEA
:1024D000026821F0100142E80313002BDAD10168F1
:1024E0000A68D20606D5002200920A68009249685E
:1024F00000910099818D01B0FEF7D2BF0268526849
:102500006FF35F2221F8022B8162A5E701B0FFF78C
:10251000D9BB000010B504460068D4E902C22369A3
:10252000016921F4405111430161626943EA0C01E0
:10253000E3691143C268194349F20C639A4311439A
:10254000C1604169A26921F4407141F20043114325
:1025500040F48062C4F201039A42416102D1FEF765
:1025600039FB01E0FEF722FBE16963681922B1F54E
:10257000004FA0FB020123D15A00DB0FFDF720FE24
:1025800048F21F51C5F2EB11A0FB01235A094FF687
:102590009C73C0F6FF7303F1805302FB03003223E8
:1025A00003EBC000A0FB01014FF4F87000EA11102A
:1025B00000EB0210C1F3421108442168886010BD8D
:1025C0009A009B0FFDF7FCFD48F21F51C5F2EB117D
:1025D000A0FB01235A094FF69C73C0F6FF7302FB60
:1025E0000300322303EB0010A0FB0101F02000EAFE
:1025F000511000EB0210C1F34311084421688860B8
:1026000010BD000040F23810C2F20000FEF74CBFCF
:10261000FEE70000FEF76EF9FFF776FCFFF79AFB86
:10262000FFF77CFBFFF71AFCFFF7EEFBFFF73EFC22
:1026300040F2F000C2F20000FEF72AFE40F238102D
:1026400040F21001C2F20000C2F200011222FFF7B4
:102650007BFA00BFFEE702E008C8121F08C1002A8B
:10266000FAD170477047002001E001C1121F002A13
:10267000FBD17047000000000000000001020304CD
:1026800006070809000000000102030400061016F6
:1026900000061016B82600080000002010000000F8
:1026A00056260008C8260008100000207805000003
:1026B0006626000800000000010000001000000075
:0826C0000024F40000000000FA
:040000050800018965
:00000001FF
